:100000000C942A000C943F000C943F000C943F0089
:100010000C943F000C943F000C943F000C943F0064
:100020000C943F000C943F000C943F000C943F0054
:100030000C943F000C943F000C943F000C943F0044
:100040000C943F000C943F000C943F000C943F0034
:100050000C943F0011241FBECFE5D8E0DEBFCDBF1A
:1000600010E0A0E6B0E0ECEFF0E002C005900D92E9
:10007000A236B107D9F70E9459000C947C000C9469
:10008000000087B38F7487BBBE9A089580E48DB952
:100090000895282FE0E6F0E090E006C02FB9779BA6
:1000A000FECF8FB181939F5F9617C0F380E690E0FB
:1000B00008958FEF8ABB87B38F7487BBBE9A80E4A5
:1000C0008DB981E46CE00E94490040E068EC70E08A
:1000D0000AC0EBBB20E137E2FB013197F1F7215079
:1000E0003040D1F74F5FFC01E40FF11DE081EE23BA
:0C00F00081F780E090E00895F894FFCFC5
:0200FC00000002
:00000001FF
